:100000000C9462000C9421030C944E030C948A000F
:100010000C948A000C948A000C94E8000C94B607A7
:100020000C948A000C948A000C948A000C948A0028
:100030000C948A000C948A000C948A000C948A0018
:100040000C947B030C948A000C9433060C948A0065
:100050000C948A000C948A000C948A000C948A00F8
:100060000C948A000C948A000000000024002700F1
:100070002A0000000000250028002B0000000000DE
:1000800023002600290004040404040404040202DA
:100090000202020203030303030301020408102007
:1000A0004080010204081020010204081020000012
:1000B0000007000201000003040600000000000029
:1000C00000007C0711241FBECFEFD8E0DEBFCDBFFC
:1000D00011E0A0E0B1E0EAE3F1E102C005900D9289
:1000E000AE31B107D9F712E0AEE1B1E001C01D9227
:1000F000AB31B107E1F710E0C4ECD0E004C02297C7
:10010000FE010E948F08C23CD107C9F70E940C0172
:100110000C949B080C9400008EE060911E010E94DC
:10012000470484E060911F010E9447048FE06091C2
:1001300020010E94470481E080931E0180931F01EB
:100140008093200168EE73E080E090E00E94C3039A
:100150008EE060911E010E94470484E060911F01BF
:100160000E9447048FE0609120010E944704109292
:100170001E0110921F011092200168EE73E080E0D2
:1001800090E00E94C303089580911201882371F0CA
:1001900081E092E040E051EE60E070E00E94700685
:1001A00081E092E060E071E00E9428060E948802EF
:1001B00080E00E94EC018EE061E00E94270484E070
:1001C00061E00E9427048FE061E00E942704089507
:1001D0001F920F920FB60F9211242F933F934F93BC
:1001E0005F936F937F938F939F93AF93BF93EF939F
:1001F000FF930E94E502FF91EF91BF91AF919F9114
:100200008F917F916F915F914F913F912F910F90BF
:100210000FBE0F901F9018950E94ED030E94C4001E
:100220000E948C00FDCF2A989EBD0DB407FEFDCF25
:100230003EB58EBD0DB407FEFDCF2EB5932F80E0E9
:100240002A9A30E0282B392BC901089580E090E0EC
:100250000E94130180916C01853009F054C080E048
:1002600090EB0E941301282F80916E01882371F476
:1002700090916D01992351F080916E01E82FF0E08B
:10028000ED5DFE4F90838F5F80936E0180916E01D4
:10029000E82FF0E0ED5DFE4F20838F5F80936E01CD
:1002A00080912101909122018227282F22952827D1
:1002B000022E269526952025022E2695202527708C
:1002C000082E892F269507942795902D822706942E
:1002D0002795902582279093220180932101809178
:1002E000250120916E0190E0049630E0821793077B
:1002F0002CF080916E01873408F46DC08DE092E897
:100300000E941301089580916C0187FF2EC0E09137
:10031000250180916C018F5F80936C018150ED5FAE
:10032000E80FF0E0ED5DFE4FE081809121019091BA
:1003300022018E27282F22952827022E26952695E2
:100340002025022E269520252770082E892F2695F8
:1003500007942795902D822706942795902582272C
:10036000909322018093210130C080916C018F5FB6
:1003700080936C018150833019F184302CF48823F0
:1003800099F0813009F516C0893019F08A30E1F40E
:1003900002C0EDE21AC0E0912301909125018EEF99
:1003A000891B80936C0111C08091210190912201E1
:1003B000E82F0BC08091210190912201E92F05C007
:1003C0008DE092E80E941301EAEA8E2F90E08050BF
:1003D00098440E941301089580936B0108951F9320
:1003E000162F80936A0140936D018AE061E00E94BC
:1003F00047048AE061E00E9427048BE061E00E94EC
:1004000027048CE060E00E9427048DE061E00E94F8
:10041000270481E58CBD8DB581608DBD82E060E0F3
:100420000E94270482E061E00E94470480E090E09F
:100430000E94130185E092E80E94130180E098EB8E
:1004400002C080E090E00E94130182E00E949404C8
:10045000892BB9F3812F90E064E0880F991F6A958A
:10046000E1F7876C90680E94130180E496EA0E948D
:10047000130186E096EC0E94130182EA94E90E943F
:1004800013018CEA92EC0E94130110916D0111236B
:1004900041F083E89AEC0E941301812F90E09E6C5A
:1004A00006C08BE89AEC0E9413018DE29EEC0E943C
:1004B000130183E894EC0E94130180E598E90E94FF
:1004C000130187E79CEC0E94130180E090EE0E94EC
:1004D000130180E098EC0E94130189E490EC0E94E3
:1004E000130184E080936C0180916A0190E08F7128
:1004F0009070892B41F080E066E271E040E050E0CE
:100500000E94EB0203C080E00E940E031F91089539
:100510000F931F93CF93DF930FEF1FEFC0E2D0E055
:10052000CE010E9493080827802F82958027082EED
:10053000869586958025082E869580258770002EC5
:10054000012F869507948795102D08270694879587
:10055000102508272196C034D10511F7012B11F081
:1005600080E02EC010E000E0C0E0D0E0CE01809638
:100570000E949308682FCC2311F4162F0CC0C130B1
:1005800011F4062F08C0662351F081E092E040E0AC
:1005900050E00E94C9052196CE31D10539F781E09E
:1005A00092E00E941106612F70E0E6E07595679574
:1005B000EA95E1F7812F402F0E94EF01812F8F7183
:1005C000DF91CF911F910F91089580916F018F5FFF
:1005D00080936F010895823000F5E82FF0E0EE0F70
:1005E000FF1FE059FE4F71836083882319F081302B
:1005F000A1F408C0809169008C7F842B80936900EE
:10060000E89A089580916900440F551F440F551FC3
:10061000837F842B80936900E99A0895823080F467
:10062000882319F0813021F402C0E89801C0E998CC
:10063000E82FF0E0EE0FFF1FE059FE4F118210820D
:1006400008951F920F920FB60F9211242F933F938C
:100650004F935F936F937F938F939F93AF93BF93CA
:10066000EF93FF938091700190917101892B29F094
:10067000E0917001F09171010995FF91EF91BF91A7
:10068000AF919F918F917F916F915F914F913F912A
:100690002F910F900FBE0F901F9018951F920F92E1
:1006A0000FB60F9211242F933F934F935F936F9345
:1006B0007F938F939F93AF93BF93EF93FF9380911B
:1006C000720190917301892B29F0E0917201F091F0
:1006D00073010995FF91EF91BF91AF919F918F9118
:1006E0007F916F915F914F913F912F910F900FBE2E
:1006F0000F901F9018951F920F920FB60F92112412
:100700002F933F938F939F93AF93BF9380917801E3
:1007100090917901A0917A01B0917B0130917C0197
:100720000196A11DB11D232F2D5F2D3720F02D57D0
:100730000196A11DB11D20937C01809378019093B7
:100740007901A0937A01B0937B018091740190911B
:100750007501A0917601B09177010196A11DB11D9F
:100760008093740190937501A0937601B093770103
:10077000BF91AF919F918F913F912F910F900FBE9D
:100780000F901F901895EF92FF920F931F937B018C
:100790008C018FB7F8944091780150917901609164
:1007A0007A0170917B018FBF2FB7F8948091780107
:1007B00090917901A0917A01B0917B012FBF841BA8
:1007C000950BA60BB70BE816F9060A071B0760F78F
:1007D0001F910F91FF90EF900895789484B58260F7
:1007E00084BD84B5816084BD85B5826085BD85B5D5
:1007F000816085BDEEE6F0E0808181608083E1E884
:10080000F0E0808182608083808181608083E0E885
:10081000F0E0808181608083E1EBF0E080818460A2
:100820008083E0EBF0E0808181608083EAE7F0E0A4
:100830008081846080838081826080838081816008
:1008400080838081806880831092C1000895282F62
:1008500030E0C90186569F4FFC0194912A573F4FC3
:10086000F9018491882391F0E82FF0E0EE0FFF1F4B
:10087000E859FF4FA591B491662329F48C91909586
:1008800089238C9308958C91892B8C930895482FFC
:1008900050E0CA0182559F4FFC012491CA0186563F
:1008A0009F4FFC0194914A575F4FFA0134913323D3
:1008B000D1F1222331F1233021F4809180008F7710
:1008C00005C0243031F4809180008F7D80938000BA
:1008D00018C0213019F484B58F7704C0223021F478
:1008E00084B58F7D84BD0DC0263021F48091B00089
:1008F0008F7705C0273029F48091B0008F7D8093D9
:10090000B000E32FF0E0EE0FFF1FEE58FF4FA59170
:10091000B491662329F48C91909589238C93089542
:100920008C91892B8C930895682F70E0CB018255B0
:100930009F4FFC012491CB0186569F4FFC014491AF
:100940006A577F4FFB019491992319F420E030E01E
:1009500038C0222331F1233021F4809180008F7739
:1009600005C0243031F4809180008F7D8093800019
:1009700018C0213019F484B58F7704C0223021F4D7
:1009800084B58F7D84BD0DC0263021F48091B000E8
:100990008F7705C0273029F48091B0008F7D809338
:1009A000B000892F90E0880F991F84589F4FFC0159
:1009B000A591B4918C9120E030E0842311F021E0E6
:1009C00030E0C90108950F931F93CF93DF938C01FB
:1009D000EB0109C02196D801ED91FC910190F081C5
:1009E000E02DC801099568816623A1F7DF91CF91B9
:1009F0001F910F910895EF92FF920F931F93CF9342
:100A0000DF938C017B01EA010CC0D7016D917D0160
:100A1000D801ED91FC910190F081E02DC80109957C
:100A20002197209791F7DF91CF911F910F91FF9020
:100A3000EF900895DC01ED91FC910280F381E02DAF
:100A4000099508952F923F924F925F926F927F92F5
:100A50008F929F92AF92BF92CF92DF92EF92FF92CE
:100A60000F931F93DF93CF93CDB7DEB7A0970FB649
:100A7000F894DEBF0FBECDBF1C016A017B0141159A
:100A800051056105710549F440E350E060E070E014
:100A900020E030E00E94DB0554C0882499245401F2
:100AA000422E55246624772401E010E00C0F1D1F10
:100AB000080D191DC701B601A30192010E9450083B
:100AC000F80160830894811C911CA11CB11CC70112
:100AD000B601A30192010E945008C901DA016C011C
:100AE0007D01C114D104E104F104F1F681E0E82EA6
:100AF000F12CEC0EFD1EE80CF91C3E010894611C63
:100B0000711CD501C4010197A109B1096C01C81874
:100B1000D90814C0F601EE0DFF1D40814A3010F4D3
:100B2000405D01C0495C50E060E070E0C10120E040
:100B300030E00E94DB050894E108F1086E147F04A0
:100B400049F7A0960FB6F894DEBF0FBECDBFCF9188
:100B5000DF911F910F91FF90EF90DF90CF90BF90AA
:100B6000AF909F908F907F906F905F904F903F904D
:100B70002F900895DC012115310541F4ED91FC9190
:100B80000190F081E02D642F099508950E942205BF
:100B90000895EF92FF920F931F939A01E62EFF2480
:100BA00000E010E0B801A7010E94BA051F910F9163
:100BB000FF90EF900895EF92FF920F931F93CF93C2
:100BC000DF93EC017A018B012115310541F4E881B5
:100BD000F9810190F081E02D642F09951BC02A3026
:100BE0003105B1F477FF10C04DE250E060E070E0F5
:100BF00020E030E00E94DB0510950095F094E09431
:100C0000E11CF11C011D111DCE01B801A7012AE054
:100C10000E942205DF91CF911F910F91FF90EF90DD
:100C200008950F931F938C014DE050E060E070E059
:100C300020E030E00E94DB05C8014AE050E060E0BF
:100C400070E020E030E00E94DB051F910F910895D5
:100C50000F931F938C010E941A05C8010E94110670
:100C60001F910F9108951F920F920FB60F921124AA
:100C70002F933F934F935F936F937F938F939F93A4
:100C8000AF93BF93EF93FF934091C600E091FD01B6
:100C9000F091FE01CF01019660E870E00E943D08EE
:100CA0009C018091FF01909100022817390739F0CB
:100CB000E358FE4F40833093FE012093FD01FF91E6
:100CC000EF91BF91AF919F918F917F916F915F91C4
:100CD0004F913F912F910F900FBE0F901F9018953D
:100CE0005F926F927F928F929F92AF92BF92CF92BC
:100CF000DF92EF92FF920F931F93CF93DF93EC015C
:100D00003A014B01413482E458078FE0680780E0E4
:100D100078070CF07FC060E874E88EE190E0A401F1
:100D200093010E9472082150304040405040CA0157
:100D3000B90122E030E040E050E00E947208590121
:100D40006A01A6019501209530954095509594E053
:100D5000220F331F441F551F9A95D1F760E074E2AC
:100D600084EF90E00E947208CA01B9012FEF30E0D1
:100D700040E050E00E940A08A40193010E9472081A
:100D8000C90181509F4F181619061CF4522E5A940F
:100D900003C055245394521A60E079E08DE390E04B
:100DA000A40193010E9472082150304040405040FD
:100DB000CA01B90122E030E040E050E00E94720830
:100DC000209530954095509583E0220F331F441FA6
:100DD000551F8A95D1F760E074E284EF90E00E949D
:100DE0007208CA01B9012FEF30E040E050E00E94E4
:100DF0000A08A40193010E947208C90181509F4F03
:100E0000181619061CF4822F815002C081E0821B43
:100E1000851500F5E885F98581E090E00A8802C033
:100E2000880F991F0A94E2F7808360E079E08DE3F0
:100E300090E0A40193010E9472082150304040408C
:100E40005040CA01B90122E030E040E050E00E9489
:100E5000720804C0E885F98510829501EC81FD8156
:100E60003083EE81FF812083EA85FB85208141E08C
:100E700050E0CA010E8402C0880F991F0A94E2F75D
:100E8000282B2083EA85FB852081CA010F8402C0BC
:100E9000880F991F0A94E2F7282B2083EA85FB85A7
:100EA0008081088802C0440F551F0A94E2F7842B02
:100EB0008083DF91CF911F910F91FF90EF90DF9092
:100EC000CF90BF90AF909F908F907F906F905F90EA
:100ED0000895FC01A085B18521898C9190E0022EB6
:100EE00002C0959587950A94E2F780FFF6CF0484B7
:100EF000F585E02D6083089587E191E090930202EB
:100F0000809301028DE791E09093040280930302A5
:100F100085EC90E0909306028093050284EC90E0CB
:100F2000909308028093070280EC90E090930A026D
:100F30008093090281EC90E090930C0280930B0265
:100F400086EC90E090930E0280930D0284E08093F3
:100F50000F0283E08093100287E08093110285E006
:100F60008093120281E08093130208951F920F92E2
:100F70000FB60F9211248F939F93AF93BF93EF936C
:100F8000FF938091140290911502A0911602B091E6
:100F90001702E0911802F09119020097A105B1051E
:100FA00031F1808190911A02892780838091140207
:100FB00090911502A0911602B09117021816190609
:100FC0001A061B06E4F48091140290911502A09178
:100FD0001602B09117020197A109B109809314027A
:100FE00090931502A0931602B093170208C01092B6
:100FF0007000908180911A02809589238083FF91EF
:10100000EF91BF91AF919F918F910F900FBE0F9075
:101010001F901895629FD001739FF001829FE00D91
:10102000F11D649FE00DF11D929FF00D839FF00D67
:10103000749FF00D659FF00D9927729FB00DE11D13
:10104000F91F639FB00DE11DF91FBD01CF011124F0
:101050000895AA1BBB1B51E107C0AA1FBB1FA617FF
:10106000B70710F0A61BB70B881F991F5A95A9F751
:1010700080959095BC01CD01089597FB092E072618
:101080000AD077FD04D0E5DF06D000201AF4709571
:1010900061957F4F0895F6F7909581959F4F08953C
:1010A000A1E21A2EAA1BBB1BFD010DC0AA1FBB1F6C
:1010B000EE1FFF1FA217B307E407F50720F0A21BDE
:1010C000B30BE40BF50B661F771F881F991F1A944B
:1010D00069F760957095809590959B01AC01BD0175
:1010E000CF01089597FB092E05260ED057FD04D099
:1010F000D7DF0AD0001C38F45095409530952195E3
:101100003F4F4F4F5F4F0895F6F79095809570953C
:1011100061957F4F8F4F9F4F0895EE0FFF1F0590F2
:10112000F491E02D0994F999FECF92BD81BDF89A12
:0A113000992780B50895F894FFCFC9
:10113A000A5B44726976655761794C6967687473AA
:0E114A005D0001000000006907E304FB0400E3
:00000001FF
